{
	"data": {
		"bytecode": {
			"linkReferences": {},
			"object": "6080604052348015600e575f80fd5b503360025f6101000a81548173ffffffffffffffffffffffffffffffffffffffff021916908373ffffffffffffffffffffffffffffffffffffffff1602179055506118928061005c5f395ff3fe608060405234801561000f575f80fd5b5060043610610060575f3560e01c80630ebddd17146100645780632fea7b8114610080578063481c6a75146100b5578063a65a2c3e146100d3578063b5b90fd9146100ef578063bdc95b321461010b575b5f80fd5b61007e60048036038101906100799190610d66565b610127565b005b61009a60048036038101906100959190610d66565b610369565b6040516100ac96959493929190610e2a565b60405180910390f35b6100bd610628565b6040516100ca9190610e9e565b60405180910390f35b6100ed60048036038101906100e89190610d66565b61064d565b005b61010960048036038101906101049190610d66565b610808565b005b61012560048036038101906101209190610fe3565b610a48565b005b60015f3373ffffffffffffffffffffffffffffffffffffffff1673ffffffffffffffffffffffffffffffffffffffff1681526020019081526020015f205f9054906101000a900460ff166101b0576040517f08c379a00000000000000000000000000000000000000000000000000000000081526004016101a7906110f7565b60405180910390fd5b805f805f8373ffffffffffffffffffffffffffffffffffffffff1673ffffffffffffffffffffffffffffffffffffffff1681526020019081526020015f205f0180546101fb90611142565b90501161023d576040517f08c379a0000000000000000000000000000000000000000000000000000000008152600401610234906111e2565b60405180910390fd5b5f808373ffffffffffffffffffffffffffffffffffffffff1673ffffffffffffffffffffffffffffffffffffffff1681526020019081526020015f2060030160019054906101000a900460ff16156102ca576040517f08c379a00000000000000000000000000000000000000000000000000000000081526004016102c19061124a565b60405180910390fd5b60015f808473ffffffffffffffffffffffffffffffffffffffff1673ffffffffffffffffffffffffffffffffffffffff1681526020019081526020015f2060030160016101000a81548160ff0219169083151502179055508173ffffffffffffffffffffffffffffffffffffffff167fccf550e579fbeb7d56da9a0175f8d4526535cab139e73b592516f1916d4075dd60405160405180910390a25050565b60608060605f805f805f808973ffffffffffffffffffffffffffffffffffffffff1673ffffffffffffffffffffffffffffffffffffffff1681526020019081526020015f206040518060c00160405290815f820180546103c890611142565b80601f01602080910402602001604051908101604052809291908181526020018280546103f490611142565b801561043f5780601f106104165761010080835404028352916020019161043f565b820191905f5260205f20905b81548152906001019060200180831161042257829003601f168201915b5050505050815260200160018201805461045890611142565b80601f016020809104026020016040519081016040528092919081815260200182805461048490611142565b80156104cf5780601f106104a6576101008083540402835291602001916104cf565b820191905f5260205f20905b8154815290600101906020018083116104b257829003601f168201915b505050505081526020016002820180546104e890611142565b80601f016020809104026020016040519081016040528092919081815260200182805461051490611142565b801561055f5780601f106105365761010080835404028352916020019161055f565b820191905f5260205f20905b81548152906001019060200180831161054257829003601f168201915b50505050508152602001600382015f9054906101000a900460ff161515151581526020016003820160019054906101000a900460ff161515151581526020016003820160029054906101000a900473ffffffffffffffffffffffffffffffffffffffff1673ffffffffffffffffffffffffffffffffffffffff1673ffffffffffffffffffffffffffffffffffffffff16815250509050805f015181602001518260400151836060015184608001518560a001519650965096509650965096505091939550919395565b60025f9054906101000a900473ffffffffffffffffffffffffffffffffffffffff1681565b60025f9054906101000a900473ffffffffffffffffffffffffffffffffffffffff1673ffffffffffffffffffffffffffffffffffffffff163373ffffffffffffffffffffffffffffffffffffffff16146106dc576040517f08c379a00000000000000000000000000000000000000000000000000000000081526004016106d3906112d8565b60405180910390fd5b60015f8273ffffffffffffffffffffffffffffffffffffffff1673ffffffffffffffffffffffffffffffffffffffff1681526020019081526020015f205f9054906101000a900460ff16610765576040517f08c379a000000000000000000000000000000000000000000000000000000000815260040161075c90611340565b60405180910390fd5b5f60015f8373ffffffffffffffffffffffffffffffffffffffff1673ffffffffffffffffffffffffffffffffffffffff1681526020019081526020015f205f6101000a81548160ff0219169083151502179055508073ffffffffffffffffffffffffffffffffffffffff167f336d120e9c366ae8628eea4e84795a86e827b96fd1e774a1eea7c9dee7c30e086040516107fd906113a8565b60405180910390a250565b60015f3373ffffffffffffffffffffffffffffffffffffffff1673ffffffffffffffffffffffffffffffffffffffff1681526020019081526020015f205f9054906101000a900460ff16610891576040517f08c379a0000000000000000000000000000000000000000000000000000000008152600401610888906110f7565b60405180910390fd5b805f805f8373ffffffffffffffffffffffffffffffffffffffff1673ffffffffffffffffffffffffffffffffffffffff1681526020019081526020015f205f0180546108dc90611142565b90501161091e576040517f08c379a0000000000000000000000000000000000000000000000000000000008152600401610915906111e2565b60405180910390fd5b5f808373ffffffffffffffffffffffffffffffffffffffff1673ffffffffffffffffffffffffffffffffffffffff1681526020019081526020015f206003015f9054906101000a900460ff16156109aa576040517f08c379a00000000000000000000000000000000000000000000000000000000081526004016109a190611410565b60405180910390fd5b60015f808473ffffffffffffffffffffffffffffffffffffffff1673ffffffffffffffffffffffffffffffffffffffff1681526020019081526020015f206003015f6101000a81548160ff0219169083151502179055508173ffffffffffffffffffffffffffffffffffffffff167f02f93fdaafad8edad1ca75101b1fbda62e64ab9afc26d0ea801ccf6ef02c09ab60405160405180910390a25050565b5f835111610a8b576040517f08c379a0000000000000000000000000000000000000000000000000000000008152600401610a829061149e565b60405180910390fd5b5f825111610ace576040517f08c379a0000000000000000000000000000000000000000000000000000000008152600401610ac590611506565b60405180910390fd5b5f805f3373ffffffffffffffffffffffffffffffffffffffff1673ffffffffffffffffffffffffffffffffffffffff1681526020019081526020015f205f018054610b1890611142565b905014610b5a576040517f08c379a0000000000000000000000000000000000000000000000000000000008152600401610b5190611594565b60405180910390fd5b6040518060c001604052808481526020018381526020018281526020015f151581526020015f151581526020013373ffffffffffffffffffffffffffffffffffffffff168152505f803373ffffffffffffffffffffffffffffffffffffffff1673ffffffffffffffffffffffffffffffffffffffff1681526020019081526020015f205f820151815f019081610bf09190611758565b506020820151816001019081610c069190611758565b506040820151816002019081610c1c9190611758565b506060820151816003015f6101000a81548160ff02191690831515021790555060808201518160030160016101000a81548160ff02191690831515021790555060a08201518160030160026101000a81548173ffffffffffffffffffffffffffffffffffffffff021916908373ffffffffffffffffffffffffffffffffffffffff1602179055509050503373ffffffffffffffffffffffffffffffffffffffff167fdc8c7948efd57970d2239c1bd917b1aacccb1af7b9d31499bb5ed1f80a7925278484604051610cee929190611827565b60405180910390a2505050565b5f604051905090565b5f80fd5b5f80fd5b5f73ffffffffffffffffffffffffffffffffffffffff82169050919050565b5f610d3582610d0c565b9050919050565b610d4581610d2b565b8114610d4f575f80fd5b50565b5f81359050610d6081610d3c565b92915050565b5f60208284031215610d7b57610d7a610d04565b5b5f610d8884828501610d52565b91505092915050565b5f81519050919050565b5f82825260208201905092915050565b8281835e5f83830152505050565b5f601f19601f8301169050919050565b5f610dd382610d91565b610ddd8185610d9b565b9350610ded818560208601610dab565b610df681610db9565b840191505092915050565b5f8115159050919050565b610e1581610e01565b82525050565b610e2481610d2b565b82525050565b5f60c0820190508181035f830152610e428189610dc9565b90508181036020830152610e568188610dc9565b90508181036040830152610e6a8187610dc9565b9050610e796060830186610e0c565b610e866080830185610e0c565b610e9360a0830184610e1b565b979650505050505050565b5f602082019050610eb15f830184610e1b565b92915050565b5f80fd5b5f80fd5b7f4e487b71000000000000000000000000000000000000000000000000000000005f52604160045260245ffd5b610ef582610db9565b810181811067ffffffffffffffff82111715610f1457610f13610ebf565b5b80604052505050565b5f610f26610cfb565b9050610f328282610eec565b919050565b5f67ffffffffffffffff821115610f5157610f50610ebf565b5b610f5a82610db9565b9050602081019050919050565b828183375f83830152505050565b5f610f87610f8284610f37565b610f1d565b905082815260208101848484011115610fa357610fa2610ebb565b5b610fae848285610f67565b509392505050565b5f82601f830112610fca57610fc9610eb7565b5b8135610fda848260208601610f75565b91505092915050565b5f805f60608486031215610ffa57610ff9610d04565b5b5f84013567ffffffffffffffff81111561101757611016610d08565b5b61102386828701610fb6565b935050602084013567ffffffffffffffff81111561104457611043610d08565b5b61105086828701610fb6565b925050604084013567ffffffffffffffff81111561107157611070610d08565b5b61107d86828701610fb6565b9150509250925092565b7f596f7520617265206e6f7420616e20617574686f72697a6564207665726966695f8201527f6572000000000000000000000000000000000000000000000000000000000000602082015250565b5f6110e1602283610d9b565b91506110ec82611087565b604082019050919050565b5f6020820190508181035f83015261110e816110d5565b9050919050565b7f4e487b71000000000000000000000000000000000000000000000000000000005f52602260045260245ffd5b5f600282049050600182168061115957607f821691505b60208210810361116c5761116b611115565b5b50919050565b7f4964656e7469747920646f6573206e6f7420657869737420666f7220746865205f8201527f7573657200000000000000000000000000000000000000000000000000000000602082015250565b5f6111cc602483610d9b565b91506111d782611172565b604082019050919050565b5f6020820190508181035f8301526111f9816111c0565b9050919050565b7f4964656e7469747920616c7265616479207265766f6b656400000000000000005f82015250565b5f611234601883610d9b565b915061123f82611200565b602082019050919050565b5f6020820190508181035f83015261126181611228565b9050919050565b7f4f6e6c7920746865206d616e616765722063616e20706572666f726d207468695f8201527f7320616374696f6e000000000000000000000000000000000000000000000000602082015250565b5f6112c2602883610d9b565b91506112cd82611268565b604082019050919050565b5f6020820190508181035f8301526112ef816112b6565b9050919050565b7f5665726966696572206973206e6f7420617574686f72697a65640000000000005f82015250565b5f61132a601a83610d9b565b9150611335826112f6565b602082019050919050565b5f6020820190508181035f8301526113578161131e565b9050919050565b7f56657269666965722072656d6f7665642066726f6d20746865206c69737400005f82015250565b5f611392601e83610d9b565b915061139d8261135e565b602082019050919050565b5f6020820190508181035f8301526113bf81611386565b9050919050565b7f4964656e7469747920616c7265616479207665726966696564000000000000005f82015250565b5f6113fa601983610d9b565b9150611405826113c6565b602082019050919050565b5f6020820190508181035f830152611427816113ee565b9050919050565b7f596f75206d75737420656e74657220796f757220666972737420616e64206c615f8201527f7374206e616d6500000000000000000000000000000000000000000000000000602082015250565b5f611488602783610d9b565b91506114938261142e565b604082019050919050565b5f6020820190508181035f8301526114b58161147c565b9050919050565b7f596f75206d75737420656e74657220796f757220656d61696c000000000000005f82015250565b5f6114f0601983610d9b565b91506114fb826114bc565b602082019050919050565b5f6020820190508181035f83015261151d816114e4565b9050919050565b7f596f7520616c7265616479206861766520616e206163636f756e7420776974685f8201527f2075730000000000000000000000000000000000000000000000000000000000602082015250565b5f61157e602383610d9b565b915061158982611524565b604082019050919050565b5f6020820190508181035f8301526115ab81611572565b9050919050565b5f819050815f5260205f209050919050565b5f6020601f8301049050919050565b5f82821b905092915050565b5f6008830261160e7fffffffffffffffffffffffffffffffffffffffffffffffffffffffffffffffff826115d3565b61161886836115d3565b95508019841693508086168417925050509392505050565b5f819050919050565b5f819050919050565b5f61165c61165761165284611630565b611639565b611630565b9050919050565b5f819050919050565b61167583611642565b61168961168182611663565b8484546115df565b825550505050565b5f90565b61169d611691565b6116a881848461166c565b505050565b5b818110156116cb576116c05f82611695565b6001810190506116ae565b5050565b601f821115611710576116e1816115b2565b6116ea846115c4565b810160208510156116f9578190505b61170d611705856115c4565b8301826116ad565b50505b505050565b5f82821c905092915050565b5f6117305f1984600802611715565b1980831691505092915050565b5f6117488383611721565b9150826002028217905092915050565b61176182610d91565b67ffffffffffffffff81111561177a57611779610ebf565b5b6117848254611142565b61178f8282856116cf565b5f60209050601f8311600181146117c0575f84156117ae578287015190505b6117b8858261173d565b86555061181f565b601f1984166117ce866115b2565b5f5b828110156117f5578489015182556001820191506020850194506020810190506117d0565b86831015611812578489015161180e601f891682611721565b8355505b6001600288020188555050505b505050505050565b5f6040820190508181035f83015261183f8185610dc9565b905081810360208301526118538184610dc9565b9050939250505056fea26469706673582212201b93883d6d5c99c80810881424d2fa0cebb4df3be1c51c47f29274dfe261d6e564736f6c63430008190033",
			"opcodes": "PUSH1 0x80 PUSH1 0x40 MSTORE CALLVALUE DUP1 ISZERO PUSH1 0xE JUMPI PUSH0 DUP1 REVERT JUMPDEST POP CALLER PUSH1 0x2 PUSH0 PUSH2 0x100 EXP DUP2 SLOAD DUP2 PUSH20 0xFFFFFFFFFFFFFFFFFFFFFFFFFFFFFFFFFFFFFFFF MUL NOT AND SWAP1 DUP4 PUSH20 0xFFFFFFFFFFFFFFFFFFFFFFFFFFFFFFFFFFFFFFFF AND MUL OR SWAP1 SSTORE POP PUSH2 0x1892 DUP1 PUSH2 0x5C PUSH0 CODECOPY PUSH0 RETURN INVALID PUSH1 0x80 PUSH1 0x40 MSTORE CALLVALUE DUP1 ISZERO PUSH2 0xF JUMPI PUSH0 DUP1 REVERT JUMPDEST POP PUSH1 0x4 CALLDATASIZE LT PUSH2 0x60 JUMPI PUSH0 CALLDATALOAD PUSH1 0xE0 SHR DUP1 PUSH4 0xEBDDD17 EQ PUSH2 0x64 JUMPI DUP1 PUSH4 0x2FEA7B81 EQ PUSH2 0x80 JUMPI DUP1 PUSH4 0x481C6A75 EQ PUSH2 0xB5 JUMPI DUP1 PUSH4 0xA65A2C3E EQ PUSH2 0xD3 JUMPI DUP1 PUSH4 0xB5B90FD9 EQ PUSH2 0xEF JUMPI DUP1 PUSH4 0xBDC95B32 EQ PUSH2 0x10B JUMPI JUMPDEST PUSH0 DUP1 REVERT JUMPDEST PUSH2 0x7E PUSH1 0x4 DUP1 CALLDATASIZE SUB DUP2 ADD SWAP1 PUSH2 0x79 SWAP2 SWAP1 PUSH2 0xD66 JUMP JUMPDEST PUSH2 0x127 JUMP JUMPDEST STOP JUMPDEST PUSH2 0x9A PUSH1 0x4 DUP1 CALLDATASIZE SUB DUP2 ADD SWAP1 PUSH2 0x95 SWAP2 SWAP1 PUSH2 0xD66 JUMP JUMPDEST PUSH2 0x369 JUMP JUMPDEST PUSH1 0x40 MLOAD PUSH2 0xAC SWAP7 SWAP6 SWAP5 SWAP4 SWAP3 SWAP2 SWAP1 PUSH2 0xE2A JUMP JUMPDEST PUSH1 0x40 MLOAD DUP1 SWAP2 SUB SWAP1 RETURN JUMPDEST PUSH2 0xBD PUSH2 0x628 JUMP JUMPDEST PUSH1 0x40 MLOAD PUSH2 0xCA SWAP2 SWAP1 PUSH2 0xE9E JUMP JUMPDEST PUSH1 0x40 MLOAD DUP1 SWAP2 SUB SWAP1 RETURN JUMPDEST PUSH2 0xED PUSH1 0x4 DUP1 CALLDATASIZE SUB DUP2 ADD SWAP1 PUSH2 0xE8 SWAP2 SWAP1 PUSH2 0xD66 JUMP JUMPDEST PUSH2 0x64D JUMP JUMPDEST STOP JUMPDEST PUSH2 0x109 PUSH1 0x4 DUP1 CALLDATASIZE SUB DUP2 ADD SWAP1 PUSH2 0x104 SWAP2 SWAP1 PUSH2 0xD66 JUMP JUMPDEST PUSH2 0x808 JUMP JUMPDEST STOP JUMPDEST PUSH2 0x125 PUSH1 0x4 DUP1 CALLDATASIZE SUB DUP2 ADD SWAP1 PUSH2 0x120 SWAP2 SWAP1 PUSH2 0xFE3 JUMP JUMPDEST PUSH2 0xA48 JUMP JUMPDEST STOP JUMPDEST PUSH1 0x1 PUSH0 CALLER PUSH20 0xFFFFFFFFFFFFFFFFFFFFFFFFFFFFFFFFFFFFFFFF AND PUSH20 0xFFFFFFFFFFFFFFFFFFFFFFFFFFFFFFFFFFFFFFFF AND DUP2 MSTORE PUSH1 0x20 ADD SWAP1 DUP2 MSTORE PUSH1 0x20 ADD PUSH0 KECCAK256 PUSH0 SWAP1 SLOAD SWAP1 PUSH2 0x100 EXP SWAP1 DIV PUSH1 0xFF AND PUSH2 0x1B0 JUMPI PUSH1 0x40 MLOAD PUSH32 0x8C379A000000000000000000000000000000000000000000000000000000000 DUP2 MSTORE PUSH1 0x4 ADD PUSH2 0x1A7 SWAP1 PUSH2 0x10F7 JUMP JUMPDEST PUSH1 0x40 MLOAD DUP1 SWAP2 SUB SWAP1 REVERT JUMPDEST DUP1 PUSH0 DUP1 PUSH0 DUP4 PUSH20 0xFFFFFFFFFFFFFFFFFFFFFFFFFFFFFFFFFFFFFFFF AND PUSH20 0xFFFFFFFFFFFFFFFFFFFFFFFFFFFFFFFFFFFFFFFF AND DUP2 MSTORE PUSH1 0x20 ADD SWAP1 DUP2 MSTORE PUSH1 0x20 ADD PUSH0 KECCAK256 PUSH0 ADD DUP1 SLOAD PUSH2 0x1FB SWAP1 PUSH2 0x1142 JUMP JUMPDEST SWAP1 POP GT PUSH2 0x23D JUMPI PUSH1 0x40 MLOAD PUSH32 0x8C379A000000000000000000000000000000000000000000000000000000000 DUP2 MSTORE PUSH1 0x4 ADD PUSH2 0x234 SWAP1 PUSH2 0x11E2 JUMP JUMPDEST PUSH1 0x40 MLOAD DUP1 SWAP2 SUB SWAP1 REVERT JUMPDEST PUSH0 DUP1 DUP4 PUSH20 0xFFFFFFFFFFFFFFFFFFFFFFFFFFFFFFFFFFFFFFFF AND PUSH20 0xFFFFFFFFFFFFFFFFFFFFFFFFFFFFFFFFFFFFFFFF AND DUP2 MSTORE PUSH1 0x20 ADD SWAP1 DUP2 MSTORE PUSH1 0x20 ADD PUSH0 KECCAK256 PUSH1 0x3 ADD PUSH1 0x1 SWAP1 SLOAD SWAP1 PUSH2 0x100 EXP SWAP1 DIV PUSH1 0xFF AND ISZERO PUSH2 0x2CA JUMPI PUSH1 0x40 MLOAD PUSH32 0x8C379A000000000000000000000000000000000000000000000000000000000 DUP2 MSTORE PUSH1 0x4 ADD PUSH2 0x2C1 SWAP1 PUSH2 0x124A JUMP JUMPDEST PUSH1 0x40 MLOAD DUP1 SWAP2 SUB SWAP1 REVERT JUMPDEST PUSH1 0x1 PUSH0 DUP1 DUP5 PUSH20 0xFFFFFFFFFFFFFFFFFFFFFFFFFFFFFFFFFFFFFFFF AND PUSH20 0xFFFFFFFFFFFFFFFFFFFFFFFFFFFFFFFFFFFFFFFF AND DUP2 MSTORE PUSH1 0x20 ADD SWAP1 DUP2 MSTORE PUSH1 0x20 ADD PUSH0 KECCAK256 PUSH1 0x3 ADD PUSH1 0x1 PUSH2 0x100 EXP DUP2 SLOAD DUP2 PUSH1 0xFF MUL NOT AND SWAP1 DUP4 ISZERO ISZERO MUL OR SWAP1 SSTORE POP DUP2 PUSH20 0xFFFFFFFFFFFFFFFFFFFFFFFFFFFFFFFFFFFFFFFF AND PUSH32 0xCCF550E579FBEB7D56DA9A0175F8D4526535CAB139E73B592516F1916D4075DD PUSH1 0x40 MLOAD PUSH1 0x40 MLOAD DUP1 SWAP2 SUB SWAP1 LOG2 POP POP JUMP JUMPDEST PUSH1 0x60 DUP1 PUSH1 0x60 PUSH0 DUP1 PUSH0 DUP1 PUSH0 DUP1 DUP10 PUSH20 0xFFFFFFFFFFFFFFFFFFFFFFFFFFFFFFFFFFFFFFFF AND PUSH20 0xFFFFFFFFFFFFFFFFFFFFFFFFFFFFFFFFFFFFFFFF AND DUP2 MSTORE PUSH1 0x20 ADD SWAP1 DUP2 MSTORE PUSH1 0x20 ADD PUSH0 KECCAK256 PUSH1 0x40 MLOAD DUP1 PUSH1 0xC0 ADD PUSH1 0x40 MSTORE SWAP1 DUP2 PUSH0 DUP3 ADD DUP1 SLOAD PUSH2 0x3C8 SWAP1 PUSH2 0x1142 JUMP JUMPDEST DUP1 PUSH1 0x1F ADD PUSH1 0x20 DUP1 SWAP2 DIV MUL PUSH1 0x20 ADD PUSH1 0x40 MLOAD SWAP1 DUP2 ADD PUSH1 0x40 MSTORE DUP1 SWAP3 SWAP2 SWAP1 DUP2 DUP2 MSTORE PUSH1 0x20 ADD DUP3 DUP1 SLOAD PUSH2 0x3F4 SWAP1 PUSH2 0x1142 JUMP JUMPDEST DUP1 ISZERO PUSH2 0x43F JUMPI DUP1 PUSH1 0x1F LT PUSH2 0x416 JUMPI PUSH2 0x100 DUP1 DUP4 SLOAD DIV MUL DUP4 MSTORE SWAP2 PUSH1 0x20 ADD SWAP2 PUSH2 0x43F JUMP JUMPDEST DUP3 ADD SWAP2 SWAP1 PUSH0 MSTORE PUSH1 0x20 PUSH0 KECCAK256 SWAP1 JUMPDEST DUP2 SLOAD DUP2 MSTORE SWAP1 PUSH1 0x1 ADD SWAP1 PUSH1 0x20 ADD DUP1 DUP4 GT PUSH2 0x422 JUMPI DUP3 SWAP1 SUB PUSH1 0x1F AND DUP3 ADD SWAP2 JUMPDEST POP POP POP POP POP DUP2 MSTORE PUSH1 0x20 ADD PUSH1 0x1 DUP3 ADD DUP1 SLOAD PUSH2 0x458 SWAP1 PUSH2 0x1142 JUMP JUMPDEST DUP1 PUSH1 0x1F ADD PUSH1 0x20 DUP1 SWAP2 DIV MUL PUSH1 0x20 ADD PUSH1 0x40 MLOAD SWAP1 DUP2 ADD PUSH1 0x40 MSTORE DUP1 SWAP3 SWAP2 SWAP1 DUP2 DUP2 MSTORE PUSH1 0x20 ADD DUP3 DUP1 SLOAD PUSH2 0x484 SWAP1 PUSH2 0x1142 JUMP JUMPDEST DUP1 ISZERO PUSH2 0x4CF JUMPI DUP1 PUSH1 0x1F LT PUSH2 0x4A6 JUMPI PUSH2 0x100 DUP1 DUP4 SLOAD DIV MUL DUP4 MSTORE SWAP2 PUSH1 0x20 ADD SWAP2 PUSH2 0x4CF JUMP JUMPDEST DUP3 ADD SWAP2 SWAP1 PUSH0 MSTORE PUSH1 0x20 PUSH0 KECCAK256 SWAP1 JUMPDEST DUP2 SLOAD DUP2 MSTORE SWAP1 PUSH1 0x1 ADD SWAP1 PUSH1 0x20 ADD DUP1 DUP4 GT PUSH2 0x4B2 JUMPI DUP3 SWAP1 SUB PUSH1 0x1F AND DUP3 ADD SWAP2 JUMPDEST POP POP POP POP POP DUP2 MSTORE PUSH1 0x20 ADD PUSH1 0x2 DUP3 ADD DUP1 SLOAD PUSH2 0x4E8 SWAP1 PUSH2 0x1142 JUMP JUMPDEST DUP1 PUSH1 0x1F ADD PUSH1 0x20 DUP1 SWAP2 DIV MUL PUSH1 0x20 ADD PUSH1 0x40 MLOAD SWAP1 DUP2 ADD PUSH1 0x40 MSTORE DUP1 SWAP3 SWAP2 SWAP1 DUP2 DUP2 MSTORE PUSH1 0x20 ADD DUP3 DUP1 SLOAD PUSH2 0x514 SWAP1 PUSH2 0x1142 JUMP JUMPDEST DUP1 ISZERO PUSH2 0x55F JUMPI DUP1 PUSH1 0x1F LT PUSH2 0x536 JUMPI PUSH2 0x100 DUP1 DUP4 SLOAD DIV MUL DUP4 MSTORE SWAP2 PUSH1 0x20 ADD SWAP2 PUSH2 0x55F JUMP JUMPDEST DUP3 ADD SWAP2 SWAP1 PUSH0 MSTORE PUSH1 0x20 PUSH0 KECCAK256 SWAP1 JUMPDEST DUP2 SLOAD DUP2 MSTORE SWAP1 PUSH1 0x1 ADD SWAP1 PUSH1 0x20 ADD DUP1 DUP4 GT PUSH2 0x542 JUMPI DUP3 SWAP1 SUB PUSH1 0x1F AND DUP3 ADD SWAP2 JUMPDEST POP POP POP POP POP DUP2 MSTORE PUSH1 0x20 ADD PUSH1 0x3 DUP3 ADD PUSH0 SWAP1 SLOAD SWAP1 PUSH2 0x100 EXP SWAP1 DIV PUSH1 0xFF AND ISZERO ISZERO ISZERO ISZERO DUP2 MSTORE PUSH1 0x20 ADD PUSH1 0x3 DUP3 ADD PUSH1 0x1 SWAP1 SLOAD SWAP1 PUSH2 0x100 EXP SWAP1 DIV PUSH1 0xFF AND ISZERO ISZERO ISZERO ISZERO DUP2 MSTORE PUSH1 0x20 ADD PUSH1 0x3 DUP3 ADD PUSH1 0x2 SWAP1 SLOAD SWAP1 PUSH2 0x100 EXP SWAP1 DIV PUSH20 0xFFFFFFFFFFFFFFFFFFFFFFFFFFFFFFFFFFFFFFFF AND PUSH20 0xFFFFFFFFFFFFFFFFFFFFFFFFFFFFFFFFFFFFFFFF AND PUSH20 0xFFFFFFFFFFFFFFFFFFFFFFFFFFFFFFFFFFFFFFFF AND DUP2 MSTORE POP POP SWAP1 POP DUP1 PUSH0 ADD MLOAD DUP2 PUSH1 0x20 ADD MLOAD DUP3 PUSH1 0x40 ADD MLOAD DUP4 PUSH1 0x60 ADD MLOAD DUP5 PUSH1 0x80 ADD MLOAD DUP6 PUSH1 0xA0 ADD MLOAD SWAP7 POP SWAP7 POP SWAP7 POP SWAP7 POP SWAP7 POP SWAP7 POP POP SWAP2 SWAP4 SWAP6 POP SWAP2 SWAP4 SWAP6 JUMP JUMPDEST PUSH1 0x2 PUSH0 SWAP1 SLOAD SWAP1 PUSH2 0x100 EXP SWAP1 DIV PUSH20 0xFFFFFFFFFFFFFFFFFFFFFFFFFFFFFFFFFFFFFFFF AND DUP2 JUMP JUMPDEST PUSH1 0x2 PUSH0 SWAP1 SLOAD SWAP1 PUSH2 0x100 EXP SWAP1 DIV PUSH20 0xFFFFFFFFFFFFFFFFFFFFFFFFFFFFFFFFFFFFFFFF AND PUSH20 0xFFFFFFFFFFFFFFFFFFFFFFFFFFFFFFFFFFFFFFFF AND CALLER PUSH20 0xFFFFFFFFFFFFFFFFFFFFFFFFFFFFFFFFFFFFFFFF AND EQ PUSH2 0x6DC JUMPI PUSH1 0x40 MLOAD PUSH32 0x8C379A000000000000000000000000000000000000000000000000000000000 DUP2 MSTORE PUSH1 0x4 ADD PUSH2 0x6D3 SWAP1 PUSH2 0x12D8 JUMP JUMPDEST PUSH1 0x40 MLOAD DUP1 SWAP2 SUB SWAP1 REVERT JUMPDEST PUSH1 0x1 PUSH0 DUP3 PUSH20 0xFFFFFFFFFFFFFFFFFFFFFFFFFFFFFFFFFFFFFFFF AND PUSH20 0xFFFFFFFFFFFFFFFFFFFFFFFFFFFFFFFFFFFFFFFF AND DUP2 MSTORE PUSH1 0x20 ADD SWAP1 DUP2 MSTORE PUSH1 0x20 ADD PUSH0 KECCAK256 PUSH0 SWAP1 SLOAD SWAP1 PUSH2 0x100 EXP SWAP1 DIV PUSH1 0xFF AND PUSH2 0x765 JUMPI PUSH1 0x40 MLOAD PUSH32 0x8C379A000000000000000000000000000000000000000000000000000000000 DUP2 MSTORE PUSH1 0x4 ADD PUSH2 0x75C SWAP1 PUSH2 0x1340 JUMP JUMPDEST PUSH1 0x40 MLOAD DUP1 SWAP2 SUB SWAP1 REVERT JUMPDEST PUSH0 PUSH1 0x1 PUSH0 DUP4 PUSH20 0xFFFFFFFFFFFFFFFFFFFFFFFFFFFFFFFFFFFFFFFF AND PUSH20 0xFFFFFFFFFFFFFFFFFFFFFFFFFFFFFFFFFFFFFFFF AND DUP2 MSTORE PUSH1 0x20 ADD SWAP1 DUP2 MSTORE PUSH1 0x20 ADD PUSH0 KECCAK256 PUSH0 PUSH2 0x100 EXP DUP2 SLOAD DUP2 PUSH1 0xFF MUL NOT AND SWAP1 DUP4 ISZERO ISZERO MUL OR SWAP1 SSTORE POP DUP1 PUSH20 0xFFFFFFFFFFFFFFFFFFFFFFFFFFFFFFFFFFFFFFFF AND PUSH32 0x336D120E9C366AE8628EEA4E84795A86E827B96FD1E774A1EEA7C9DEE7C30E08 PUSH1 0x40 MLOAD PUSH2 0x7FD SWAP1 PUSH2 0x13A8 JUMP JUMPDEST PUSH1 0x40 MLOAD DUP1 SWAP2 SUB SWAP1 LOG2 POP JUMP JUMPDEST PUSH1 0x1 PUSH0 CALLER PUSH20 0xFFFFFFFFFFFFFFFFFFFFFFFFFFFFFFFFFFFFFFFF AND PUSH20 0xFFFFFFFFFFFFFFFFFFFFFFFFFFFFFFFFFFFFFFFF AND DUP2 MSTORE PUSH1 0x20 ADD SWAP1 DUP2 MSTORE PUSH1 0x20 ADD PUSH0 KECCAK256 PUSH0 SWAP1 SLOAD SWAP1 PUSH2 0x100 EXP SWAP1 DIV PUSH1 0xFF AND PUSH2 0x891 JUMPI PUSH1 0x40 MLOAD PUSH32 0x8C379A000000000000000000000000000000000000000000000000000000000 DUP2 MSTORE PUSH1 0x4 ADD PUSH2 0x888 SWAP1 PUSH2 0x10F7 JUMP JUMPDEST PUSH1 0x40 MLOAD DUP1 SWAP2 SUB SWAP1 REVERT JUMPDEST DUP1 PUSH0 DUP1 PUSH0 DUP4 PUSH20 0xFFFFFFFFFFFFFFFFFFFFFFFFFFFFFFFFFFFFFFFF AND PUSH20 0xFFFFFFFFFFFFFFFFFFFFFFFFFFFFFFFFFFFFFFFF AND DUP2 MSTORE PUSH1 0x20 ADD SWAP1 DUP2 MSTORE PUSH1 0x20 ADD PUSH0 KECCAK256 PUSH0 ADD DUP1 SLOAD PUSH2 0x8DC SWAP1 PUSH2 0x1142 JUMP JUMPDEST SWAP1 POP GT PUSH2 0x91E JUMPI PUSH1 0x40 MLOAD PUSH32 0x8C379A000000000000000000000000000000000000000000000000000000000 DUP2 MSTORE PUSH1 0x4 ADD PUSH2 0x915 SWAP1 PUSH2 0x11E2 JUMP JUMPDEST PUSH1 0x40 MLOAD DUP1 SWAP2 SUB SWAP1 REVERT JUMPDEST PUSH0 DUP1 DUP4 PUSH20 0xFFFFFFFFFFFFFFFFFFFFFFFFFFFFFFFFFFFFFFFF AND PUSH20 0xFFFFFFFFFFFFFFFFFFFFFFFFFFFFFFFFFFFFFFFF AND DUP2 MSTORE PUSH1 0x20 ADD SWAP1 DUP2 MSTORE PUSH1 0x20 ADD PUSH0 KECCAK256 PUSH1 0x3 ADD PUSH0 SWAP1 SLOAD SWAP1 PUSH2 0x100 EXP SWAP1 DIV PUSH1 0xFF AND ISZERO PUSH2 0x9AA JUMPI PUSH1 0x40 MLOAD PUSH32 0x8C379A000000000000000000000000000000000000000000000000000000000 DUP2 MSTORE PUSH1 0x4 ADD PUSH2 0x9A1 SWAP1 PUSH2 0x1410 JUMP JUMPDEST PUSH1 0x40 MLOAD DUP1 SWAP2 SUB SWAP1 REVERT JUMPDEST PUSH1 0x1 PUSH0 DUP1 DUP5 PUSH20 0xFFFFFFFFFFFFFFFFFFFFFFFFFFFFFFFFFFFFFFFF AND PUSH20 0xFFFFFFFFFFFFFFFFFFFFFFFFFFFFFFFFFFFFFFFF AND DUP2 MSTORE PUSH1 0x20 ADD SWAP1 DUP2 MSTORE PUSH1 0x20 ADD PUSH0 KECCAK256 PUSH1 0x3 ADD PUSH0 PUSH2 0x100 EXP DUP2 SLOAD DUP2 PUSH1 0xFF MUL NOT AND SWAP1 DUP4 ISZERO ISZERO MUL OR SWAP1 SSTORE POP DUP2 PUSH20 0xFFFFFFFFFFFFFFFFFFFFFFFFFFFFFFFFFFFFFFFF AND PUSH32 0x2F93FDAAFAD8EDAD1CA75101B1FBDA62E64AB9AFC26D0EA801CCF6EF02C09AB PUSH1 0x40 MLOAD PUSH1 0x40 MLOAD DUP1 SWAP2 SUB SWAP1 LOG2 POP POP JUMP JUMPDEST PUSH0 DUP4 MLOAD GT PUSH2 0xA8B JUMPI PUSH1 0x40 MLOAD PUSH32 0x8C379A000000000000000000000000000000000000000000000000000000000 DUP2 MSTORE PUSH1 0x4 ADD PUSH2 0xA82 SWAP1 PUSH2 0x149E JUMP JUMPDEST PUSH1 0x40 MLOAD DUP1 SWAP2 SUB SWAP1 REVERT JUMPDEST PUSH0 DUP3 MLOAD GT PUSH2 0xACE JUMPI PUSH1 0x40 MLOAD PUSH32 0x8C379A000000000000000000000000000000000000000000000000000000000 DUP2 MSTORE PUSH1 0x4 ADD PUSH2 0xAC5 SWAP1 PUSH2 0x1506 JUMP JUMPDEST PUSH1 0x40 MLOAD DUP1 SWAP2 SUB SWAP1 REVERT JUMPDEST PUSH0 DUP1 PUSH0 CALLER PUSH20 0xFFFFFFFFFFFFFFFFFFFFFFFFFFFFFFFFFFFFFFFF AND PUSH20 0xFFFFFFFFFFFFFFFFFFFFFFFFFFFFFFFFFFFFFFFF AND DUP2 MSTORE PUSH1 0x20 ADD SWAP1 DUP2 MSTORE PUSH1 0x20 ADD PUSH0 KECCAK256 PUSH0 ADD DUP1 SLOAD PUSH2 0xB18 SWAP1 PUSH2 0x1142 JUMP JUMPDEST SWAP1 POP EQ PUSH2 0xB5A JUMPI PUSH1 0x40 MLOAD PUSH32 0x8C379A000000000000000000000000000000000000000000000000000000000 DUP2 MSTORE PUSH1 0x4 ADD PUSH2 0xB51 SWAP1 PUSH2 0x1594 JUMP JUMPDEST PUSH1 0x40 MLOAD DUP1 SWAP2 SUB SWAP1 REVERT JUMPDEST PUSH1 0x40 MLOAD DUP1 PUSH1 0xC0 ADD PUSH1 0x40 MSTORE DUP1 DUP5 DUP2 MSTORE PUSH1 0x20 ADD DUP4 DUP2 MSTORE PUSH1 0x20 ADD DUP3 DUP2 MSTORE PUSH1 0x20 ADD PUSH0 ISZERO ISZERO DUP2 MSTORE PUSH1 0x20 ADD PUSH0 ISZERO ISZERO DUP2 MSTORE PUSH1 0x20 ADD CALLER PUSH20 0xFFFFFFFFFFFFFFFFFFFFFFFFFFFFFFFFFFFFFFFF AND DUP2 MSTORE POP PUSH0 DUP1 CALLER PUSH20 0xFFFFFFFFFFFFFFFFFFFFFFFFFFFFFFFFFFFFFFFF AND PUSH20 0xFFFFFFFFFFFFFFFFFFFFFFFFFFFFFFFFFFFFFFFF AND DUP2 MSTORE PUSH1 0x20 ADD SWAP1 DUP2 MSTORE PUSH1 0x20 ADD PUSH0 KECCAK256 PUSH0 DUP3 ADD MLOAD DUP2 PUSH0 ADD SWAP1 DUP2 PUSH2 0xBF0 SWAP2 SWAP1 PUSH2 0x1758 JUMP JUMPDEST POP PUSH1 0x20 DUP3 ADD MLOAD DUP2 PUSH1 0x1 ADD SWAP1 DUP2 PUSH2 0xC06 SWAP2 SWAP1 PUSH2 0x1758 JUMP JUMPDEST POP PUSH1 0x40 DUP3 ADD MLOAD DUP2 PUSH1 0x2 ADD SWAP1 DUP2 PUSH2 0xC1C SWAP2 SWAP1 PUSH2 0x1758 JUMP JUMPDEST POP PUSH1 0x60 DUP3 ADD MLOAD DUP2 PUSH1 0x3 ADD PUSH0 PUSH2 0x100 EXP DUP2 SLOAD DUP2 PUSH1 0xFF MUL NOT AND SWAP1 DUP4 ISZERO ISZERO MUL OR SWAP1 SSTORE POP PUSH1 0x80 DUP3 ADD MLOAD DUP2 PUSH1 0x3 ADD PUSH1 0x1 PUSH2 0x100 EXP DUP2 SLOAD DUP2 PUSH1 0xFF MUL NOT AND SWAP1 DUP4 ISZERO ISZERO MUL OR SWAP1 SSTORE POP PUSH1 0xA0 DUP3 ADD MLOAD DUP2 PUSH1 0x3 ADD PUSH1 0x2 PUSH2 0x100 EXP DUP2 SLOAD DUP2 PUSH20 0xFFFFFFFFFFFFFFFFFFFFFFFFFFFFFFFFFFFFFFFF MUL NOT AND SWAP1 DUP4 PUSH20 0xFFFFFFFFFFFFFFFFFFFFFFFFFFFFFFFFFFFFFFFF AND MUL OR SWAP1 SSTORE POP SWAP1 POP POP CALLER PUSH20 0xFFFFFFFFFFFFFFFFFFFFFFFFFFFFFFFFFFFFFFFF AND PUSH32 0xDC8C7948EFD57970D2239C1BD917B1AACCCB1AF7B9D31499BB5ED1F80A792527 DUP5 DUP5 PUSH1 0x40 MLOAD PUSH2 0xCEE SWAP3 SWAP2 SWAP1 PUSH2 0x1827 JUMP JUMPDEST PUSH1 0x40 MLOAD DUP1 SWAP2 SUB SWAP1 LOG2 POP POP POP JUMP JUMPDEST PUSH0 PUSH1 0x40 MLOAD SWAP1 POP SWAP1 JUMP JUMPDEST PUSH0 DUP1 REVERT JUMPDEST PUSH0 DUP1 REVERT JUMPDEST PUSH0 PUSH20 0xFFFFFFFFFFFFFFFFFFFFFFFFFFFFFFFFFFFFFFFF DUP3 AND SWAP1 POP SWAP2 SWAP1 POP JUMP JUMPDEST PUSH0 PUSH2 0xD35 DUP3 PUSH2 0xD0C JUMP JUMPDEST SWAP1 POP SWAP2 SWAP1 POP JUMP JUMPDEST PUSH2 0xD45 DUP2 PUSH2 0xD2B JUMP JUMPDEST DUP2 EQ PUSH2 0xD4F JUMPI PUSH0 DUP1 REVERT JUMPDEST POP JUMP JUMPDEST PUSH0 DUP2 CALLDATALOAD SWAP1 POP PUSH2 0xD60 DUP2 PUSH2 0xD3C JUMP JUMPDEST SWAP3 SWAP2 POP POP JUMP JUMPDEST PUSH0 PUSH1 0x20 DUP3 DUP5 SUB SLT ISZERO PUSH2 0xD7B JUMPI PUSH2 0xD7A PUSH2 0xD04 JUMP JUMPDEST JUMPDEST PUSH0 PUSH2 0xD88 DUP5 DUP3 DUP6 ADD PUSH2 0xD52 JUMP JUMPDEST SWAP2 POP POP SWAP3 SWAP2 POP POP JUMP JUMPDEST PUSH0 DUP2 MLOAD SWAP1 POP SWAP2 SWAP1 POP JUMP JUMPDEST PUSH0 DUP3 DUP3 MSTORE PUSH1 0x20 DUP3 ADD SWAP1 POP SWAP3 SWAP2 POP POP JUMP JUMPDEST DUP3 DUP2 DUP4 MCOPY PUSH0 DUP4 DUP4 ADD MSTORE POP POP POP JUMP JUMPDEST PUSH0 PUSH1 0x1F NOT PUSH1 0x1F DUP4 ADD AND SWAP1 POP SWAP2 SWAP1 POP JUMP JUMPDEST PUSH0 PUSH2 0xDD3 DUP3 PUSH2 0xD91 JUMP JUMPDEST PUSH2 0xDDD DUP2 DUP6 PUSH2 0xD9B JUMP JUMPDEST SWAP4 POP PUSH2 0xDED DUP2 DUP6 PUSH1 0x20 DUP7 ADD PUSH2 0xDAB JUMP JUMPDEST PUSH2 0xDF6 DUP2 PUSH2 0xDB9 JUMP JUMPDEST DUP5 ADD SWAP2 POP POP SWAP3 SWAP2 POP POP JUMP JUMPDEST PUSH0 DUP2 ISZERO ISZERO SWAP1 POP SWAP2 SWAP1 POP JUMP JUMPDEST PUSH2 0xE15 DUP2 PUSH2 0xE01 JUMP JUMPDEST DUP3 MSTORE POP POP JUMP JUMPDEST PUSH2 0xE24 DUP2 PUSH2 0xD2B JUMP JUMPDEST DUP3 MSTORE POP POP JUMP JUMPDEST PUSH0 PUSH1 0xC0 DUP3 ADD SWAP1 POP DUP2 DUP2 SUB PUSH0 DUP4 ADD MSTORE PUSH2 0xE42 DUP2 DUP10 PUSH2 0xDC9 JUMP JUMPDEST SWAP1 POP DUP2 DUP2 SUB PUSH1 0x20 DUP4 ADD MSTORE PUSH2 0xE56 DUP2 DUP9 PUSH2 0xDC9 JUMP JUMPDEST SWAP1 POP DUP2 DUP2 SUB PUSH1 0x40 DUP4 ADD MSTORE PUSH2 0xE6A DUP2 DUP8 PUSH2 0xDC9 JUMP JUMPDEST SWAP1 POP PUSH2 0xE79 PUSH1 0x60 DUP4 ADD DUP7 PUSH2 0xE0C JUMP JUMPDEST PUSH2 0xE86 PUSH1 0x80 DUP4 ADD DUP6 PUSH2 0xE0C JUMP JUMPDEST PUSH2 0xE93 PUSH1 0xA0 DUP4 ADD DUP5 PUSH2 0xE1B JUMP JUMPDEST SWAP8 SWAP7 POP POP POP POP POP POP POP JUMP JUMPDEST PUSH0 PUSH1 0x20 DUP3 ADD SWAP1 POP PUSH2 0xEB1 PUSH0 DUP4 ADD DUP5 PUSH2 0xE1B JUMP JUMPDEST SWAP3 SWAP2 POP POP JUMP JUMPDEST PUSH0 DUP1 REVERT JUMPDEST PUSH0 DUP1 REVERT JUMPDEST PUSH32 0x4E487B7100000000000000000000000000000000000000000000000000000000 PUSH0 MSTORE PUSH1 0x41 PUSH1 0x4 MSTORE PUSH1 0x24 PUSH0 REVERT JUMPDEST PUSH2 0xEF5 DUP3 PUSH2 0xDB9 JUMP JUMPDEST DUP2 ADD DUP2 DUP2 LT PUSH8 0xFFFFFFFFFFFFFFFF DUP3 GT OR ISZERO PUSH2 0xF14 JUMPI PUSH2 0xF13 PUSH2 0xEBF JUMP JUMPDEST JUMPDEST DUP1 PUSH1 0x40 MSTORE POP POP POP JUMP JUMPDEST PUSH0 PUSH2 0xF26 PUSH2 0xCFB JUMP JUMPDEST SWAP1 POP PUSH2 0xF32 DUP3 DUP3 PUSH2 0xEEC JUMP JUMPDEST SWAP2 SWAP1 POP JUMP JUMPDEST PUSH0 PUSH8 0xFFFFFFFFFFFFFFFF DUP3 GT ISZERO PUSH2 0xF51 JUMPI PUSH2 0xF50 PUSH2 0xEBF JUMP JUMPDEST JUMPDEST PUSH2 0xF5A DUP3 PUSH2 0xDB9 JUMP JUMPDEST SWAP1 POP PUSH1 0x20 DUP2 ADD SWAP1 POP SWAP2 SWAP1 POP JUMP JUMPDEST DUP3 DUP2 DUP4 CALLDATACOPY PUSH0 DUP4 DUP4 ADD MSTORE POP POP POP JUMP JUMPDEST PUSH0 PUSH2 0xF87 PUSH2 0xF82 DUP5 PUSH2 0xF37 JUMP JUMPDEST PUSH2 0xF1D JUMP JUMPDEST SWAP1 POP DUP3 DUP2 MSTORE PUSH1 0x20 DUP2 ADD DUP5 DUP5 DUP5 ADD GT ISZERO PUSH2 0xFA3 JUMPI PUSH2 0xFA2 PUSH2 0xEBB JUMP JUMPDEST JUMPDEST PUSH2 0xFAE DUP5 DUP3 DUP6 PUSH2 0xF67 JUMP JUMPDEST POP SWAP4 SWAP3 POP POP POP JUMP JUMPDEST PUSH0 DUP3 PUSH1 0x1F DUP4 ADD SLT PUSH2 0xFCA JUMPI PUSH2 0xFC9 PUSH2 0xEB7 JUMP JUMPDEST JUMPDEST DUP2 CALLDATALOAD PUSH2 0xFDA DUP5 DUP3 PUSH1 0x20 DUP7 ADD PUSH2 0xF75 JUMP JUMPDEST SWAP2 POP POP SWAP3 SWAP2 POP POP JUMP JUMPDEST PUSH0 DUP1 PUSH0 PUSH1 0x60 DUP5 DUP7 SUB SLT ISZERO PUSH2 0xFFA JUMPI PUSH2 0xFF9 PUSH2 0xD04 JUMP JUMPDEST JUMPDEST PUSH0 DUP5 ADD CALLDATALOAD PUSH8 0xFFFFFFFFFFFFFFFF DUP2 GT ISZERO PUSH2 0x1017 JUMPI PUSH2 0x1016 PUSH2 0xD08 JUMP JUMPDEST JUMPDEST PUSH2 0x1023 DUP7 DUP3 DUP8 ADD PUSH2 0xFB6 JUMP JUMPDEST SWAP4 POP POP PUSH1 0x20 DUP5 ADD CALLDATALOAD PUSH8 0xFFFFFFFFFFFFFFFF DUP2 GT ISZERO PUSH2 0x1044 JUMPI PUSH2 0x1043 PUSH2 0xD08 JUMP JUMPDEST JUMPDEST PUSH2 0x1050 DUP7 DUP3 DUP8 ADD PUSH2 0xFB6 JUMP JUMPDEST SWAP3 POP POP PUSH1 0x40 DUP5 ADD CALLDATALOAD PUSH8 0xFFFFFFFFFFFFFFFF DUP2 GT ISZERO PUSH2 0x1071 JUMPI PUSH2 0x1070 PUSH2 0xD08 JUMP JUMPDEST JUMPDEST PUSH2 0x107D DUP7 DUP3 DUP8 ADD PUSH2 0xFB6 JUMP JUMPDEST SWAP2 POP POP SWAP3 POP SWAP3 POP SWAP3 JUMP JUMPDEST PUSH32 0x596F7520617265206E6F7420616E20617574686F72697A656420766572696669 PUSH0 DUP3 ADD MSTORE PUSH32 0x6572000000000000000000000000000000000000000000000000000000000000 PUSH1 0x20 DUP3 ADD MSTORE POP JUMP JUMPDEST PUSH0 PUSH2 0x10E1 PUSH1 0x22 DUP4 PUSH2 0xD9B JUMP JUMPDEST SWAP2 POP PUSH2 0x10EC DUP3 PUSH2 0x1087 JUMP JUMPDEST PUSH1 0x40 DUP3 ADD SWAP1 POP SWAP2 SWAP1 POP JUMP JUMPDEST PUSH0 PUSH1 0x20 DUP3 ADD SWAP1 POP DUP2 DUP2 SUB PUSH0 DUP4 ADD MSTORE PUSH2 0x110E DUP2 PUSH2 0x10D5 JUMP JUMPDEST SWAP1 POP SWAP2 SWAP1 POP JUMP JUMPDEST PUSH32 0x4E487B7100000000000000000000000000000000000000000000000000000000 PUSH0 MSTORE PUSH1 0x22 PUSH1 0x4 MSTORE PUSH1 0x24 PUSH0 REVERT JUMPDEST PUSH0 PUSH1 0x2 DUP3 DIV SWAP1 POP PUSH1 0x1 DUP3 AND DUP1 PUSH2 0x1159 JUMPI PUSH1 0x7F DUP3 AND SWAP2 POP JUMPDEST PUSH1 0x20 DUP3 LT DUP2 SUB PUSH2 0x116C JUMPI PUSH2 0x116B PUSH2 0x1115 JUMP JUMPDEST JUMPDEST POP SWAP2 SWAP1 POP JUMP JUMPDEST PUSH32 0x4964656E7469747920646F6573206E6F7420657869737420666F722074686520 PUSH0 DUP3 ADD MSTORE PUSH32 0x7573657200000000000000000000000000000000000000000000000000000000 PUSH1 0x20 DUP3 ADD MSTORE POP JUMP JUMPDEST PUSH0 PUSH2 0x11CC PUSH1 0x24 DUP4 PUSH2 0xD9B JUMP JUMPDEST SWAP2 POP PUSH2 0x11D7 DUP3 PUSH2 0x1172 JUMP JUMPDEST PUSH1 0x40 DUP3 ADD SWAP1 POP SWAP2 SWAP1 POP JUMP JUMPDEST PUSH0 PUSH1 0x20 DUP3 ADD SWAP1 POP DUP2 DUP2 SUB PUSH0 DUP4 ADD MSTORE PUSH2 0x11F9 DUP2 PUSH2 0x11C0 JUMP JUMPDEST SWAP1 POP SWAP2 SWAP1 POP JUMP JUMPDEST PUSH32 0x4964656E7469747920616C7265616479207265766F6B65640000000000000000 PUSH0 DUP3 ADD MSTORE POP JUMP JUMPDEST PUSH0 PUSH2 0x1234 PUSH1 0x18 DUP4 PUSH2 0xD9B JUMP JUMPDEST SWAP2 POP PUSH2 0x123F DUP3 PUSH2 0x1200 JUMP JUMPDEST PUSH1 0x20 DUP3 ADD SWAP1 POP SWAP2 SWAP1 POP JUMP JUMPDEST PUSH0 PUSH1 0x20 DUP3 ADD SWAP1 POP DUP2 DUP2 SUB PUSH0 DUP4 ADD MSTORE PUSH2 0x1261 DUP2 PUSH2 0x1228 JUMP JUMPDEST SWAP1 POP SWAP2 SWAP1 POP JUMP JUMPDEST PUSH32 0x4F6E6C7920746865206D616E616765722063616E20706572666F726D20746869 PUSH0 DUP3 ADD MSTORE PUSH32 0x7320616374696F6E000000000000000000000000000000000000000000000000 PUSH1 0x20 DUP3 ADD MSTORE POP JUMP JUMPDEST PUSH0 PUSH2 0x12C2 PUSH1 0x28 DUP4 PUSH2 0xD9B JUMP JUMPDEST SWAP2 POP PUSH2 0x12CD DUP3 PUSH2 0x1268 JUMP JUMPDEST PUSH1 0x40 DUP3 ADD SWAP1 POP SWAP2 SWAP1 POP JUMP JUMPDEST PUSH0 PUSH1 0x20 DUP3 ADD SWAP1 POP DUP2 DUP2 SUB PUSH0 DUP4 ADD MSTORE PUSH2 0x12EF DUP2 PUSH2 0x12B6 JUMP JUMPDEST SWAP1 POP SWAP2 SWAP1 POP JUMP JUMPDEST PUSH32 0x5665726966696572206973206E6F7420617574686F72697A6564000000000000 PUSH0 DUP3 ADD MSTORE POP JUMP JUMPDEST PUSH0 PUSH2 0x132A PUSH1 0x1A DUP4 PUSH2 0xD9B JUMP JUMPDEST SWAP2 POP PUSH2 0x1335 DUP3 PUSH2 0x12F6 JUMP JUMPDEST PUSH1 0x20 DUP3 ADD SWAP1 POP SWAP2 SWAP1 POP JUMP JUMPDEST PUSH0 PUSH1 0x20 DUP3 ADD SWAP1 POP DUP2 DUP2 SUB PUSH0 DUP4 ADD MSTORE PUSH2 0x1357 DUP2 PUSH2 0x131E JUMP JUMPDEST SWAP1 POP SWAP2 SWAP1 POP JUMP JUMPDEST PUSH32 0x56657269666965722072656D6F7665642066726F6D20746865206C6973740000 PUSH0 DUP3 ADD MSTORE POP JUMP JUMPDEST PUSH0 PUSH2 0x1392 PUSH1 0x1E DUP4 PUSH2 0xD9B JUMP JUMPDEST SWAP2 POP PUSH2 0x139D DUP3 PUSH2 0x135E JUMP JUMPDEST PUSH1 0x20 DUP3 ADD SWAP1 POP SWAP2 SWAP1 POP JUMP JUMPDEST PUSH0 PUSH1 0x20 DUP3 ADD SWAP1 POP DUP2 DUP2 SUB PUSH0 DUP4 ADD MSTORE PUSH2 0x13BF DUP2 PUSH2 0x1386 JUMP JUMPDEST SWAP1 POP SWAP2 SWAP1 POP JUMP JUMPDEST PUSH32 0x4964656E7469747920616C726561647920766572696669656400000000000000 PUSH0 DUP3 ADD MSTORE POP JUMP JUMPDEST PUSH0 PUSH2 0x13FA PUSH1 0x19 DUP4 PUSH2 0xD9B JUMP JUMPDEST SWAP2 POP PUSH2 0x1405 DUP3 PUSH2 0x13C6 JUMP JUMPDEST PUSH1 0x20 DUP3 ADD SWAP1 POP SWAP2 SWAP1 POP JUMP JUMPDEST PUSH0 PUSH1 0x20 DUP3 ADD SWAP1 POP DUP2 DUP2 SUB PUSH0 DUP4 ADD MSTORE PUSH2 0x1427 DUP2 PUSH2 0x13EE JUMP JUMPDEST SWAP1 POP SWAP2 SWAP1 POP JUMP JUMPDEST PUSH32 0x596F75206D75737420656E74657220796F757220666972737420616E64206C61 PUSH0 DUP3 ADD MSTORE PUSH32 0x7374206E616D6500000000000000000000000000000000000000000000000000 PUSH1 0x20 DUP3 ADD MSTORE POP JUMP JUMPDEST PUSH0 PUSH2 0x1488 PUSH1 0x27 DUP4 PUSH2 0xD9B JUMP JUMPDEST SWAP2 POP PUSH2 0x1493 DUP3 PUSH2 0x142E JUMP JUMPDEST PUSH1 0x40 DUP3 ADD SWAP1 POP SWAP2 SWAP1 POP JUMP JUMPDEST PUSH0 PUSH1 0x20 DUP3 ADD SWAP1 POP DUP2 DUP2 SUB PUSH0 DUP4 ADD MSTORE PUSH2 0x14B5 DUP2 PUSH2 0x147C JUMP JUMPDEST SWAP1 POP SWAP2 SWAP1 POP JUMP JUMPDEST PUSH32 0x596F75206D75737420656E74657220796F757220656D61696C00000000000000 PUSH0 DUP3 ADD MSTORE POP JUMP JUMPDEST PUSH0 PUSH2 0x14F0 PUSH1 0x19 DUP4 PUSH2 0xD9B JUMP JUMPDEST SWAP2 POP PUSH2 0x14FB DUP3 PUSH2 0x14BC JUMP JUMPDEST PUSH1 0x20 DUP3 ADD SWAP1 POP SWAP2 SWAP1 POP JUMP JUMPDEST PUSH0 PUSH1 0x20 DUP3 ADD SWAP1 POP DUP2 DUP2 SUB PUSH0 DUP4 ADD MSTORE PUSH2 0x151D DUP2 PUSH2 0x14E4 JUMP JUMPDEST SWAP1 POP SWAP2 SWAP1 POP JUMP JUMPDEST PUSH32 0x596F7520616C7265616479206861766520616E206163636F756E742077697468 PUSH0 DUP3 ADD MSTORE PUSH32 0x2075730000000000000000000000000000000000000000000000000000000000 PUSH1 0x20 DUP3 ADD MSTORE POP JUMP JUMPDEST PUSH0 PUSH2 0x157E PUSH1 0x23 DUP4 PUSH2 0xD9B JUMP JUMPDEST SWAP2 POP PUSH2 0x1589 DUP3 PUSH2 0x1524 JUMP JUMPDEST PUSH1 0x40 DUP3 ADD SWAP1 POP SWAP2 SWAP1 POP JUMP JUMPDEST PUSH0 PUSH1 0x20 DUP3 ADD SWAP1 POP DUP2 DUP2 SUB PUSH0 DUP4 ADD MSTORE PUSH2 0x15AB DUP2 PUSH2 0x1572 JUMP JUMPDEST SWAP1 POP SWAP2 SWAP1 POP JUMP JUMPDEST PUSH0 DUP2 SWAP1 POP DUP2 PUSH0 MSTORE PUSH1 0x20 PUSH0 KECCAK256 SWAP1 POP SWAP2 SWAP1 POP JUMP JUMPDEST PUSH0 PUSH1 0x20 PUSH1 0x1F DUP4 ADD DIV SWAP1 POP SWAP2 SWAP1 POP JUMP JUMPDEST PUSH0 DUP3 DUP3 SHL SWAP1 POP SWAP3 SWAP2 POP POP JUMP JUMPDEST PUSH0 PUSH1 0x8 DUP4 MUL PUSH2 0x160E PUSH32 0xFFFFFFFFFFFFFFFFFFFFFFFFFFFFFFFFFFFFFFFFFFFFFFFFFFFFFFFFFFFFFFFF DUP3 PUSH2 0x15D3 JUMP JUMPDEST PUSH2 0x1618 DUP7 DUP4 PUSH2 0x15D3 JUMP JUMPDEST SWAP6 POP DUP1 NOT DUP5 AND SWAP4 POP DUP1 DUP7 AND DUP5 OR SWAP3 POP POP POP SWAP4 SWAP3 POP POP POP JUMP JUMPDEST PUSH0 DUP2 SWAP1 POP SWAP2 SWAP1 POP JUMP JUMPDEST PUSH0 DUP2 SWAP1 POP SWAP2 SWAP1 POP JUMP JUMPDEST PUSH0 PUSH2 0x165C PUSH2 0x1657 PUSH2 0x1652 DUP5 PUSH2 0x1630 JUMP JUMPDEST PUSH2 0x1639 JUMP JUMPDEST PUSH2 0x1630 JUMP JUMPDEST SWAP1 POP SWAP2 SWAP1 POP JUMP JUMPDEST PUSH0 DUP2 SWAP1 POP SWAP2 SWAP1 POP JUMP JUMPDEST PUSH2 0x1675 DUP4 PUSH2 0x1642 JUMP JUMPDEST PUSH2 0x1689 PUSH2 0x1681 DUP3 PUSH2 0x1663 JUMP JUMPDEST DUP5 DUP5 SLOAD PUSH2 0x15DF JUMP JUMPDEST DUP3 SSTORE POP POP POP POP JUMP JUMPDEST PUSH0 SWAP1 JUMP JUMPDEST PUSH2 0x169D PUSH2 0x1691 JUMP JUMPDEST PUSH2 0x16A8 DUP2 DUP5 DUP5 PUSH2 0x166C JUMP JUMPDEST POP POP POP JUMP JUMPDEST JUMPDEST DUP2 DUP2 LT ISZERO PUSH2 0x16CB JUMPI PUSH2 0x16C0 PUSH0 DUP3 PUSH2 0x1695 JUMP JUMPDEST PUSH1 0x1 DUP2 ADD SWAP1 POP PUSH2 0x16AE JUMP JUMPDEST POP POP JUMP JUMPDEST PUSH1 0x1F DUP3 GT ISZERO PUSH2 0x1710 JUMPI PUSH2 0x16E1 DUP2 PUSH2 0x15B2 JUMP JUMPDEST PUSH2 0x16EA DUP5 PUSH2 0x15C4 JUMP JUMPDEST DUP2 ADD PUSH1 0x20 DUP6 LT ISZERO PUSH2 0x16F9 JUMPI DUP2 SWAP1 POP JUMPDEST PUSH2 0x170D PUSH2 0x1705 DUP6 PUSH2 0x15C4 JUMP JUMPDEST DUP4 ADD DUP3 PUSH2 0x16AD JUMP JUMPDEST POP POP JUMPDEST POP POP POP JUMP JUMPDEST PUSH0 DUP3 DUP3 SHR SWAP1 POP SWAP3 SWAP2 POP POP JUMP JUMPDEST PUSH0 PUSH2 0x1730 PUSH0 NOT DUP5 PUSH1 0x8 MUL PUSH2 0x1715 JUMP JUMPDEST NOT DUP1 DUP4 AND SWAP2 POP POP SWAP3 SWAP2 POP POP JUMP JUMPDEST PUSH0 PUSH2 0x1748 DUP4 DUP4 PUSH2 0x1721 JUMP JUMPDEST SWAP2 POP DUP3 PUSH1 0x2 MUL DUP3 OR SWAP1 POP SWAP3 SWAP2 POP POP JUMP JUMPDEST PUSH2 0x1761 DUP3 PUSH2 0xD91 JUMP JUMPDEST PUSH8 0xFFFFFFFFFFFFFFFF DUP2 GT ISZERO PUSH2 0x177A JUMPI PUSH2 0x1779 PUSH2 0xEBF JUMP JUMPDEST JUMPDEST PUSH2 0x1784 DUP3 SLOAD PUSH2 0x1142 JUMP JUMPDEST PUSH2 0x178F DUP3 DUP3 DUP6 PUSH2 0x16CF JUMP JUMPDEST PUSH0 PUSH1 0x20 SWAP1 POP PUSH1 0x1F DUP4 GT PUSH1 0x1 DUP2 EQ PUSH2 0x17C0 JUMPI PUSH0 DUP5 ISZERO PUSH2 0x17AE JUMPI DUP3 DUP8 ADD MLOAD SWAP1 POP JUMPDEST PUSH2 0x17B8 DUP6 DUP3 PUSH2 0x173D JUMP JUMPDEST DUP7 SSTORE POP PUSH2 0x181F JUMP JUMPDEST PUSH1 0x1F NOT DUP5 AND PUSH2 0x17CE DUP7 PUSH2 0x15B2 JUMP JUMPDEST PUSH0 JUMPDEST DUP3 DUP2 LT ISZERO PUSH2 0x17F5 JUMPI DUP5 DUP10 ADD MLOAD DUP3 SSTORE PUSH1 0x1 DUP3 ADD SWAP2 POP PUSH1 0x20 DUP6 ADD SWAP5 POP PUSH1 0x20 DUP2 ADD SWAP1 POP PUSH2 0x17D0 JUMP JUMPDEST DUP7 DUP4 LT ISZERO PUSH2 0x1812 JUMPI DUP5 DUP10 ADD MLOAD PUSH2 0x180E PUSH1 0x1F DUP10 AND DUP3 PUSH2 0x1721 JUMP JUMPDEST DUP4 SSTORE POP JUMPDEST PUSH1 0x1 PUSH1 0x2 DUP9 MUL ADD DUP9 SSTORE POP POP POP JUMPDEST POP POP POP POP POP POP JUMP JUMPDEST PUSH0 PUSH1 0x40 DUP3 ADD SWAP1 POP DUP2 DUP2 SUB PUSH0 DUP4 ADD MSTORE PUSH2 0x183F DUP2 DUP6 PUSH2 0xDC9 JUMP JUMPDEST SWAP1 POP DUP2 DUP2 SUB PUSH1 0x20 DUP4 ADD MSTORE PUSH2 0x1853 DUP2 DUP5 PUSH2 0xDC9 JUMP JUMPDEST SWAP1 POP SWAP4 SWAP3 POP POP POP JUMP INVALID LOG2 PUSH5 0x6970667358 0x22 SLT KECCAK256 SHL SWAP4 DUP9 RETURNDATASIZE PUSH14 0x5C99C80810881424D2FA0CEBB4DF EXTCODESIZE 0xE1 0xC5 SHR SELFBALANCE CALLCODE SWAP3 PUSH21 0xDFE261D6E564736F6C634300081900330000000000 "
		},
		"gasEstimates": {
			"creation": {
				"codeDepositCost": "1258000",
				"executionCost": "25571",
				"totalCost": "1283571"
			},
			"external": {
				"getIdentity(address)": "infinite",
				"manager()": "2530",
				"registerIdentity(string,string,string)": "infinite",
				"removeAuthorizedVerifier(address)": "31436",
				"revokeIdentity(address)": "32890",
				"verifyIdentity(address)": "32876"
			}
		},
		"methodIdentifiers": {
			"getIdentity(address)": "2fea7b81",
			"manager()": "481c6a75",
			"registerIdentity(string,string,string)": "bdc95b32",
			"removeAuthorizedVerifier(address)": "a65a2c3e",
			"revokeIdentity(address)": "0ebddd17",
			"verifyIdentity(address)": "b5b90fd9"
		}
	},
	"abi": [
		{
			"inputs": [],
			"stateMutability": "nonpayable",
			"type": "constructor"
		},
		{
			"anonymous": false,
			"inputs": [
				{
					"indexed": true,
					"internalType": "address",
					"name": "user",
					"type": "address"
				},
				{
					"indexed": false,
					"internalType": "string",
					"name": "name",
					"type": "string"
				},
				{
					"indexed": false,
					"internalType": "string",
					"name": "email",
					"type": "string"
				}
			],
			"name": "IdentityRegistered",
			"type": "event"
		},
		{
			"anonymous": false,
			"inputs": [
				{
					"indexed": true,
					"internalType": "address",
					"name": "user",
					"type": "address"
				}
			],
			"name": "IdentityRevoked",
			"type": "event"
		},
		{
			"anonymous": false,
			"inputs": [
				{
					"indexed": true,
					"internalType": "address",
					"name": "user",
					"type": "address"
				}
			],
			"name": "IdentityVerified",
			"type": "event"
		},
		{
			"anonymous": false,
			"inputs": [
				{
					"indexed": true,
					"internalType": "address",
					"name": "verifierAddress",
					"type": "address"
				}
			],
			"name": "VerifierAdded",
			"type": "event"
		},
		{
			"anonymous": false,
			"inputs": [
				{
					"indexed": true,
					"internalType": "address",
					"name": "verifierAddress",
					"type": "address"
				},
				{
					"indexed": false,
					"internalType": "string",
					"name": "reason",
					"type": "string"
				}
			],
			"name": "VerifierRevoked",
			"type": "event"
		},
		{
			"inputs": [
				{
					"internalType": "address",
					"name": "_user",
					"type": "address"
				}
			],
			"name": "getIdentity",
			"outputs": [
				{
					"internalType": "string",
					"name": "",
					"type": "string"
				},
				{
					"internalType": "string",
					"name": "",
					"type": "string"
				},
				{
					"internalType": "string",
					"name": "",
					"type": "string"
				},
				{
					"internalType": "bool",
					"name": "",
					"type": "bool"
				},
				{
					"internalType": "bool",
					"name": "",
					"type": "bool"
				},
				{
					"internalType": "address",
					"name": "",
					"type": "address"
				}
			],
			"stateMutability": "view",
			"type": "function"
		},
		{
			"inputs": [],
			"name": "manager",
			"outputs": [
				{
					"internalType": "address",
					"name": "",
					"type": "address"
				}
			],
			"stateMutability": "view",
			"type": "function"
		},
		{
			"inputs": [
				{
					"internalType": "string",
					"name": "_name",
					"type": "string"
				},
				{
					"internalType": "string",
					"name": "_email",
					"type": "string"
				},
				{
					"internalType": "string",
					"name": "_verificationDocument",
					"type": "string"
				}
			],
			"name": "registerIdentity",
			"outputs": [],
			"stateMutability": "nonpayable",
			"type": "function"
		},
		{
			"inputs": [
				{
					"internalType": "address",
					"name": "_verifier",
					"type": "address"
				}
			],
			"name": "removeAuthorizedVerifier",
			"outputs": [],
			"stateMutability": "nonpayable",
			"type": "function"
		},
		{
			"inputs": [
				{
					"internalType": "address",
					"name": "_user",
					"type": "address"
				}
			],
			"name": "revokeIdentity",
			"outputs": [],
			"stateMutability": "nonpayable",
			"type": "function"
		},
		{
			"inputs": [
				{
					"internalType": "address",
					"name": "_user",
					"type": "address"
				}
			],
			"name": "verifyIdentity",
			"outputs": [],
			"stateMutability": "nonpayable",
			"type": "function"
		}
	]
}